:020000040800F2
:10000000580900209D01000849070008FD05000867
:1000100045070008850200085D1000080000000088
:10002000000000000000000000000000250900089A
:10003000D904000800000000D9070008150A0008CC
:10004000B7010008B7010008B7010008B7010008B0
:10005000B7010008B7010008DD040008B701000877
:10006000B7010008B7010008B7010008B701000890
:10007000B7010008B7010008B7010008B701000880
:10008000B7010008B7010008B7010008B701000870
:10009000B7010008B7010008B7010008B701000860
:1000A000B7010008B7010008B7010008B701000850
:1000B000B7010008B7010008810A0008B70100086D
:1000C000B7010008B7010008B7010008B701000830
:1000D000B7010008350C0008B7010008B701000897
:1000E000B7010008B7010008B7010008B701000810
:1000F000B7010008B7010008B7010008B701000800
:10010000B7010008B7010008B7010008B7010008EF
:10011000B7010008B7010008B7010008B7010008DF
:10012000B7010008B7010008B7010008B7010008CF
:10013000B7010008B7010008B7010008B7010008BF
:10014000B7010008B7010008B7010008B7010008AF
:10015000B7010008B7010008B7010008B70100089F
:10016000B7010008B7010008B7010008B70100088F
:10017000B7010008B7010008B7010008B70100087F
:10018000B7010008B7010008DFF80CD000F068F8EC
:10019000004800479113000858090020064880478E
:1001A00006480047FEE7FEE7FEE7FEE7FEE7FEE75C
:1001B000FEE7FEE7FEE7FEE7190A000889010008EE
:1001C0002DE9F05F0546002092469B46884606468C
:1001D000814640241BE0284641464746224600F01F
:1001E0002FF853465A46C01A914110D3114618466B
:1001F000224600F016F82D1A67EB01084F462246FA
:100200000120002100F00DF817EB00094E41201EDF
:10021000A4F10104DFDC484631462A464346BDE8E6
:10022000F09F202A04DB203A00FA02F100207047F8
:100230009140C2F1200320FA03F319439040704724
:10024000202A04DB203A21FA02F00021704721FA2B
:1002500002F3D040C2F12002914008431946704792
:10026000064C074D06E0E06840F0010394E8070003
:1002700098471034AC42F6D3FFF78AFF7C1500088C
:100280009C15000800BFFEE70246094B9A4201D2C6
:10029000084801E00648103801F000531BB1064B36
:1002A0000B40C36002E0044B0B40836070470000CA
:1002B00010640240006002407D0F7D0F21B1026892
:1002C00042F00102026003E0026822F001020260D3
:1002D00070470000016821F0010101600021016008
:1002E00041608160C1600161212141614A498842C8
:1002F00004D13D21484A103A91608CE046491831BA
:10030000884205D14FF47461434A103A916082E00B
:1003100041493031884205D14FF474113E4A103AB8
:10032000916078E03C494831884205D14FF07461D2
:10033000394A103A91606EE037496031884204D101
:100340003649354A103AD16065E033497831884200
:1003500004D13349304A103AD1605CE02E499031E3
:10036000884204D12F492C4A103AD16053E02A49DF
:10037000A831884205D14FF03D51274A103AD1604B
:1003800049E02949884204D13D21274A083A1160B1
:1003900041E025491831884205D14FF47461224A61
:1003A000083A116037E020493031884205D14FF4D6
:1003B00074111D4A083A11602DE01B4948318842EA
:1003C00005D14FF07461184A083A116023E01649CC
:1003D0006031884204D11149134A121F11601AE09A
:1003E00011497831884204D10D490F4A121F11601A
:1003F00011E00D499031884204D10A490A4A121F7E
:10040000116008E00849A831884204D14FF03D51FD
:10041000054A121F11607047106002403D00002025
:10042000400F002000003D201064024001460020E3
:100430000A6802F001020AB1012000E000207047C2
:1004400010B501F080034BB122B1436943F0800342
:10045000436103E0436923F08003436180290BD0AB
:100460002AB1036801F01E042343036004E003681B
:1004700001F01E04A343036010BD000010B500226C
:100480000268134B1A40CC680B6823434C69234322
:100490008C692343CC6923430C6A23434C6A23436E
:1004A0008C6A23434C6B23438C6B23431A430260B7
:1004B000426922F00702D1E90B3423431A43426117
:1004C0000B6943604B6883608B68C36010BD00009C
:1004D0003F801CF0416070477047000010B500BFBE
:1004E0000648006880470421054800F07CF8012890
:1004F000F6D0042000F006F810BD00003000002007
:10050000000002400149086070470000143C0140AF
:10051000F0B50A4600210023002400BF3DE001257C
:1005200005FA01F3156805EA03049C4234D1056815
:100530004F000326BE40B543056015794E00B54017
:100540000668354305601579012D02D01579022D15
:1005500016D185684F000326BE40B54385605579A6
:100560004E00B540866835438560456801268E405B
:10057000B5434560456896798E40B6B235434560CF
:10058000C5684F000326BE40B543C560D5794E000F
:10059000B540C6683543C560491C1029BFD3F0BDBE
:1005A000F0B5002300244D07ED0E02FA05F3CE103E
:1005B00000F1200555F826504E07F70E0F26BE40D5
:1005C000B543CF1000F1200646F82750CE1000F1B9
:1005D000200555F8265045EA0304CE1000F1200509
:1005E00045F82640F0BD0246002013690B400BB1D0
:1005F000012000E0002070470183704700BFFEE744
:1006000010B51448C4682078022819D0052813D0E2
:10061000062802D007281BD116E00FA000F020FD0D
:1006200017480078012806D10421201D00F0E8FABF
:1006300014A000F015FD0BE018A000F011FD07E07C
:1006400020A000F00DFD03E025A000F009FD00BF93
:1006500000BF10BDC8040020554152545F444154AE
:10066000415F545950455F53454C465F4E45545782
:100670004F524B5F464F524D4154494F4E0D0A0069
:100680002100002073656C66206E6574776F726B55
:10069000206973206F6B0D0A000000005541525411
:1006A0005F444154415F545950455F544F504F4C43
:1006B0004F47595F52454C4154494F4E534849505A
:1006C0000D0A0000554152545F444154415F545952
:1006D00050455F434F4D4D414E440D0A0000000010
:1006E000554152545F444154415F545950455F5203
:1006F0004F555445525F4241434B4F46465F544924
:100700004D450D0A000000001CB50121022000F03B
:1007100065F84FF40040009001208DF8040002209D
:100720008DF8050000208DF8060069460448FFF7A3
:10073000EFFE4FF400410248FFF75EFF1CBD0000D2
:100740000004024000BFFEE77047000070B50021C2
:1007500000230F22C4781CB3174C246804F4E0640F
:10076000C4F5E064C4F30721C1F10404E3B20A4113
:1007700044789C40E1B28478144021430C07210E58
:100780000E4C05786155047804F01F050124AC4037
:1007900005786D11AD0005F1E025C5F8004109E0CF
:1007A000047804F01F050124AC40054D067876114D
:1007B00045F8264070BD00000CED00E000E400E0CC
:1007C00080E100E002490143024A116070470000E5
:1007D0000000FA050CED00E07047000029B1064A60
:1007E00012680243044B1A6004E0034A1268824311
:1007F000014B1A60704700003038024029B1064AA8
:1008000012680243044B1A6004E0034A12688243F0
:10081000014B1A60704700004038024029B1064A77
:1008200012680243044B1A6004E0034A12688243D0
:10083000014B1A607047000044380240F0B50021B7
:1008400000220024022500260223324F3F6807F0D1
:100850000C0121B1042905D0082937D105E02E4F1C
:10086000076036E02D4F076033E02A4F3F1F3F6897
:10087000C7F38056274F3F1F3F6807F03F036EB115
:10088000264FB7FBF3F7DFF88CC0ACF1040CDCF8B3
:1008900000C0CCF3881C07FB0CF40CE01E4FB7FB28
:1008A000F3F7DFF870C0ACF1040CDCF800C0CCF357
:1008B000881C07FB0CF4174F3F1F3F68C7F3014725
:1008C0007F1C7D00B4FBF5F7076002E0124F076064
:1008D00000BF00BF0F4F3F6807F0F0010909104F3C
:1008E0007A5C0768D74047600A4F3F6807F4E051D9
:1008F000890A0B4F7A5C4768D7408760054F3F688D
:1009000007F46041490B064F7A5C4768D740C760DF
:10091000F0BD0000083802400024F40000127A0004
:1009200034000020704700000CB5002001900090BA
:100930003448006840F4A0203249086000BF3148C4
:10094000006800F4003000900198401C019000986D
:1009500018B90198B0F5A04FF1D12A48006800F409
:10096000003010B10120009001E0002000900098BC
:10097000012846D123484030006840F0805021498A
:10098000403108602048006840F440401E4908603B
:100990001C48083000681B49083108600846006898
:1009A00040F4004008600846006840F4A050086029
:1009B0001648091F0860081F006840F08070091F72
:1009C000086000BF0F48006800F000700028F9D0F0
:1009D00040F205700E4908600A480830006820F0AF
:1009E00003000849083108600846006840F002002A
:1009F000086000BF03480830006800F00C000828B9
:100A0000F8D10CBD0038024000700040085040088A
:100A1000003C02407047000010B51548006840F4E3
:100A20007000134908601348006840F00100114944
:100A3000086000200F49083108600E4800680E4920
:100A400008400C4908600D48091D0860081F00682F
:100A500020F48020091F0860002006490C3108603E
:100A6000FFF762FF4FF0006001498039086010BD58
:100A700088ED00E000380240FFFFF6FE1030002451
:100A800010B50121084800F050F8012807D10748A7
:100A9000006820B105480068401E04490860012133
:100AA000014800F033F810BD000800402800002085
:100AB0007FB505460C4601210420FFF79FFE0295F5
:100AC000ADF804400020ADF80600ADF80C0001A917
:100AD0000D4800F045F8012211460B4800F036F8A9
:100AE0000121094800F015F81E208DF800000020B3
:100AF0008DF801008DF8020001208DF80300684692
:100B0000FFF724FE7FBD000000080040CA430282B8
:100B1000704721B1028842F00102028004E002889D
:100B20004FF6FE731A400280704730B5024600202F
:100B300000230024158A05EA0103958905EA0104CA
:100B400013B10CB1012000E0002030BD1AB183893F
:100B50000B43838102E083898B43838170470000CC
:100B600000220288184B98420ED0184B98420BD0A6
:100B7000B0F1804F08D0164B984205D0154B9842E3
:100B800002D0154B984204D14FF68F731A404B8810
:100B90001A43124B984207D0114B984204D04FF69B
:100BA000FF431A400B891A4302804B68C3620B88CB
:100BB0000385054B984202D0044B984201D18B7AB1
:100BC0000386012383827047000001400004014036
:100BD0000004004000080040000C004000100040ED
:100BE0000014004010B54F2140F2E730FFF760FFDE
:100BF00000210248FFF78DFF10BD000000080040F3
:100C00001CB50A46014601238DF8003000238DF8FB
:100C100001308B788DF80230CB788DF803300B786B
:100C2000034CA3704B78E370022323701CBD0000BB
:100C30002100002010B540F224413C4800F0B6F8F5
:100C4000002871D039480088384880880021384809
:100C5000FFF734FB37493648FFF716FB3648007874
:100C6000AA2801D1012000E0002033494978552904
:100C700001D1012100E000210840002847D00120D7
:100C80002E4908702C4880782D4908702A48C07871
:100C9000487008460088001D2749085C552801D186
:100CA000012000E0002026490988491D224A515CA4
:100CB000AA2901D1012100E00021084000B303204E
:100CC0001E490870012008721D48008848800020D5
:100CD00006E0194A011D515C1A4A1154411C88B2A0
:100CE000164949888142F4DC02201449087216A092
:100CF00000F0B6F9FFF784FC0020104908720CE000
:100D000004200E49087012A000F0AAF905E00220A4
:100D10000A49087012A000F0A3F9002007490870E2
:100D200001210348FFF7CAFA10BD0000001001407E
:100D3000406402400080201048000020C8040020C9
:100D40002C000020D8040020736176650D0A000095
:100D5000CAFDBEDDCEB2B4EDCEF30D0A0000000038
:100D6000CAFDBEDDCDB7B4EDCEF30D0A0000000024
:100D700001F40072B2F5007F00D100BFCA430280C7
:100D8000704721B1828942F40052828104E0828955
:100D90004DF6FF731A40828170471AB1838A0B4364
:100DA000838202E0838A8B438382704770B5024658
:100DB000002400230025002040F66A16B14200D12D
:100DC00000BFC1F3421501F01F03012606FA03F329
:100DD000012D02D19689334006E0022D02D1168AF8
:100DE000334001E0968A33400C12012606FA04F4DF
:100DF0001688344013B10CB1012000E0002070BD12
:100E0000F0B50346002400260025002040F66A17AE
:100E1000B94200D100BF1846C1F3421401F01F06C9
:100E2000012707FA06F5012C01D10C3004E0022C51
:100E300001D1103000E014301AB107682F43076069
:100E400002E00768AF430760F0BD00002DE9FF47EF
:100E500005460E460024A14600BFA046B08900B159
:100E600000BF2C8A24F44054F08804432C82AC89BF
:100E700041F20C608443B08831890843718908438A
:100E80000443AC81AC8A24F44074B0890443AC823E
:100E90006846FFF7D3FC2048854202D01F488542B0
:100EA00002D1DDF80C9001E0DDF80890A88900F48B
:100EB000004040B109EBC90000EB0910316849005E
:100EC000B0FBF1F707E009EBC90000EB091031684E
:100ED0008900B0FBF1F76420B7FBF0F004012009B2
:100EE000642101FB1078A88900F4004040B1322051
:100EF00000EBC800B0FBF1F000F00700044308E08D
:100F0000322000EB08106421B0FBF1F000F00F007C
:100F100004432C81BDE8FF8700100140001401400C
:100F200000B58FB001218805FFF758FC1A48FFF77C
:100F3000D1F900BF1848FFF779FA0028FAD14FF02D
:100F40000060009015480190154802900020039021
:100F500080200490002005904FF4806006900020CF
:100F60000790089009904FF480300A9000200B9071
:100F700003200C9000200D900E9069460648FFF764
:100F80007DFA012210210448FFF75AFA0121024894
:100F9000FFF794F90FB000BD406402400410014017
:100FA0004800002010B5044600210B48FFF786F9E1
:100FB00000BF0948FFF73AFA0028FAD1214606484F
:100FC000FFF788FA05490448FFF75EF90121024856
:100FD000FFF774F910BD0000B864024000800028DB
:100FE00000B58FB001218805FFF7F8FB1848FFF71F
:100FF00071F900BF1648FFF719FA0028FAD14FF02F
:101000000060009013480190134802904020039024
:1010100000010490002005904FF4806006900020AD
:101020000790089009904FF480300A9000200B90B0
:1010300003200C9000200D900E9069460448FFF7A5
:101040001DFA012210210248FFF7FAF90FB000BD86
:10105000B864024004100140C800002000BFFEE751
:101060000FB4054B10B503A9044A029800F018F814
:1010700010BC5DF814FB000075130008440000204C
:1010800002E008C8121F08C1002AFAD17047704751
:10109000002001E001C1121F002AFBD170470000AF
:1010A0002DE9FF4F8DB09B460F460446002606E013
:1010B00025280BD05A460F999047641C761C20783F
:1010C0000028F5D111B03046BDE8F08F0025A846C4
:1010D0000122984900E0054314F8013F203B02FA41
:1010E00003F00842F7D120782E2817D114F8010F09
:1010F00045F004052A280ED06FF02F022078A0F1C9
:10110000300109290AD808EB880102EB410100EB04
:101110000108641CF2E757F8048B641C20786C28E3
:101120000DD004DC4C2812D06A2811D104E07428B8
:101130000DD07A280CD10AE045F4001507E061785B
:1011400045F48015814202D1641C05F58015641CAC
:101150002278692A45D008DC002AB3D0582A69D001
:10116000632A10D0642A08D13BE0702A67D0732A22
:1011700013D0752A5CD0782A5CD010465A460F9955
:101180009047761CD3E017F8040B8DF80000002080
:101190008DF80100E946012003E057F8049B4FF069
:1011A000FF3069074FF0000501D40AE06D1C45458A
:1011B0000DDA8542FADB19F805100029F6D106E0B0
:1011C0006D1C8542FCDB19F805100029F8D12E446E
:1011D00004E019F8010B5A460F9990476D1EF8D29A
:1011E000A5E00A200021CDE90801C5F3025002283C
:1011F0000DD001CFC117031E71F100030DDA4FF0BE
:10120000000CD0EB0C006CEB01012D2308E0FF1D5E
:1012100027F00707F7E80201EDE72B0504D52B239C
:101220008DF8283001233BE0EB0739D02023F7E786
:101230000A2000E010200021CDE9080107E010207D
:10124000002145F00405CDE908014FF00808C5F379
:10125000025002280FD001CF00214FF0000A2B07C7
:101260001FD5702A0DD0DDE908C38CF0100C5CEAA4
:10127000030C0CD015E0FF1D27F00707F7E802016B
:10128000EBE740228DF828204FF0010A0BE050EAEE
:10129000010306D030238DF828308DF82920022351
:1012A0009A46582A04D024A20DF120090B9209E095
:1012B00026A2F9E7DDE90823FEF782FF0B9B9B5C82
:1012C00009F8013D50EA0102F4D1ADEB09002030EC
:1012D0000890680701D44FF001080899884502DD9D
:1012E000A8EB010000E000208046002506E00AA8E7
:1012F0005A46405D0F9990476D1C761C5545F6DBAC
:1013000004E030205A460F999047761CB8F100014E
:10131000A8F10108F5DC05E019F8010B5A460F9910
:101320009047761C0899481E08900029F4DC641C3C
:10133000C5E6000009280100303132333435363734
:101340003839616263646566000000003031323311
:1013500034353637383941424344454600000000B1
:101360000120034908700020487008717047000090
:101370002100002000BF054A128802F04002002A26
:10138000F9D0C2B2014B9A807047000000100140B2
:101390004FF48060FFF716FA00F07AF816A0FFF716
:1013A0005FFE17A0FFF75CFEFFF7AEF91AA0FFF78C
:1013B00057FEFFF717FC1EA0FFF752FE22A0FFF713
:1013C0004FFEFFF7CDFF26A0FFF74AFE002405E001
:1013D0002948005D29490855601CC4B20D2CF7DB73
:1013E0000CA0FFF73DFE0D20FFF7DCFD24A0FFF76A
:1013F00037FE00BFFEE700000D0A0D0A00000000E6
:101400007573617274315F696E6974206973206FDE
:10141000766572210D0A00004C45445F496E69747F
:10142000202020206973206F766572210D0A00004C
:1014300064656C61795F696E697420206973206FDF
:10144000766572210D0A0000696E69745F616C6CCB
:10145000202020206973206F766572210D0A00001C
:10146000CDF8B9D8B3F5CABCBBAF20206973206FE3
:10147000766572210D0A000014000020C8000020CB
:101480000D0A444D41206973207365740D0A0000F4
:1014900000B587B001210846FFF7A0F9012110200F
:1014A000FFF7BCF94FF4165001900020ADF808008A
:1014B000ADF80A00ADF80C00ADF810000C20ADF846
:1014C0000E0001A92948FFF7C1FC01212748FFF7B9
:1014D00058FC4FF4C060059002208DF818008DF87C
:1014E000190000208DF81A0001208DF81B0005A9B5
:1014F0001F48FFF70DF8072209211D48FFF750F894
:1015000007220A211A48FFF74BF840211748FFF736
:101510002FFC012240F224411448FFF771FC2520E2
:101520008DF8000006208DF8010000208DF80200E3
:1015300001208DF803006846FFF708F901224021D9
:101540000A48FFF72AFCFFF7EBFC0122802107483D
:10155000FFF723FCFFF744FD00200649087006480A
:10156000C86000204880087207B000BD001001402C
:1015700000000240C8040020D80400209C15000888
:10158000000000204800000080100008E41500085A
:101590004800002010090000901000084D6F6C6991
:1015A000616D214D6F6C69616D2164640000000004
:1015B000696E6974206973206F6B210D0A00000049
:1015C000000000000000000000000000000000001B
:1015D00000000000010203040102030406070809D9
:0415E0000000000007
:040000050800018965
:00000001FF
