:020000040800F2
:10000000483701205D020008CD090008BD0800083E
:10001000C909000869030008BD14000800000000B9
:100020000000000000000000000000009D0100082A
:10003000E506000800000000F9010008550E000860
:1000400077020008770200087702000877020008AC
:100050007702000877020008E90600087702000826
:10006000770200087702000877020008770200088C
:10007000770200087702000877020008770200087C
:10008000770200087702000877020008770200086C
:10009000770200087702000877020008770200085C
:1000A000770200087702000877020008770200084C
:1000B0007702000877020008F10E000877020008B6
:1000C000770200087702000877020008770200082C
:1000D00077020008D11000087702000877020008B4
:1000E000770200087702000877020008770200080C
:1000F00077020008770200087702000877020008FC
:1001000077020008770200087702000877020008EB
:1001100077020008770200087702000877020008DB
:1001200077020008770200087702000877020008CB
:1001300077020008770200087702000877020008BB
:1001400077020008770200087702000877020008AB
:10015000770200087702000877020008770200089B
:10016000770200087702000877020008770200088B
:10017000770200087702000877020008770200087B
:100180007702000877020008DFF80CD000F0DAF8F8
:1001900000480047A9220008483701202C4B196865
:1001A0000868B0E8F04F80F30988BFF36F8F4FF015
:1001B000000080F3118870470000000008480068C4
:1001C000006880F308884FF0000080F3148862B65E
:1001D00061B6BFF34F8FBFF36F8F00DF00BF00BF6B
:1001E00008ED00E0DFF80C00016841F470010160E7
:1001F000704700BF88ED00E0EFF30980BFF36F8F19
:10020000134B1A681EF0100F08BF20ED108A20E96A
:10021000F04F106009B44FF0500080F31188BFF325
:100220004F8FBFF36F8F03F051FA4FF0000080F350
:10023000118809BC19680868B0E8F04F1EF0100F6B
:1002400008BFB0EC108A80F30988BFF36F8F704746
:1002500078000020EFF305807047000006488047D3
:1002600006480047FEE7FEE7FEE7FEE7FEE7FEE79B
:10027000FEE7FEE7FEE7FEE7890E000889010008B9
:1002800040EA01039B0703D009E008C9121F08C018
:10029000042AFAD203E011F8013B00F8013B521E98
:1002A000F9D270472DE9F05F0546002092469B4643
:1002B00088460646814640241BE02846414647467C
:1002C000224600F02FF853465A46C01A914110D3E7
:1002D00011461846224600F016F82D1A67EB010861
:1002E0004F4622460120002100F00DF817EB0009CF
:1002F0004E41201EA4F10104DFDC484631462A4667
:100300004346BDE8F09F202A04DB203A00FA02F1C0
:10031000002070479140C2F1200320FA03F31943F3
:1003200090407047202A04DB203A21FA02F0002195
:10033000704721FA02F3D040C2F1200291400843F5
:1003400019467047064C074D06E0E06840F001038F
:1003500094E8070098471034AC42F6D3FFF718FF33
:10036000F04400081045000800BFFEE700B585B066
:100370000121084600F072FB0121880300F08EFB8A
:100380000420039000208DF8100002208DF8130047
:1003900003A9134800F01AFA0221002000F0C4FC5F
:1003A0000420019000208DF8080008208DF8090035
:1003B00001208DF80A0001A800F0BEF908208DF890
:1003C000000007208DF8010001208DF802008DF853
:1003D0000300684600F0FCFA002005B000BD0000F4
:1003E000000002401CB50121022000F037FB012172
:1003F000084600F033FB4FF48060009001208DF838
:10040000040000208DF8060003208DF80500002070
:100410008DF8070069460F4800F0D8F908200090D1
:1004200001208DF8040000208DF8060003208DF8CF
:10043000050000208DF807006946074800F0C6F95E
:100440004FF48061034800F037FA0821024800F0B9
:1004500033FA1CBD00040240000002401CB501211B
:10046000084600F0FBFA012000908DF804000020FF
:100470008DF8060003208DF8050000208DF8070098
:100480006946044800F0A2F90121024800F012FA7E
:100490001CBD0000000002400246094B9A4201D2F6
:1004A000084801E00648103801F000531BB1064B24
:1004B0000B40C36002E0044B0B40836070470000B8
:1004C00010640240006002407D0F7D0F21B1026880
:1004D00042F00102026003E0026822F001020260C1
:1004E00070470000016821F00101016000210160F6
:1004F00041608160C1600161212141614A498842B6
:1005000004D13D21484A103A91608CE046491831A7
:10051000884205D14FF47461434A103A916082E0F9
:1005200041493031884205D14FF474113E4A103AA6
:10053000916078E03C494831884205D14FF07461C0
:10054000394A103A91606EE037496031884204D1EF
:100550003649354A103AD16065E0334978318842EE
:1005600004D13349304A103AD1605CE02E499031D1
:10057000884204D12F492C4A103AD16053E02A49CD
:10058000A831884205D14FF03D51274A103AD16039
:1005900049E02949884204D13D21274A083A11609F
:1005A00041E025491831884205D14FF47461224A4F
:1005B000083A116037E020493031884205D14FF4C4
:1005C00074111D4A083A11602DE01B4948318842D8
:1005D00005D14FF07461184A083A116023E01649BA
:1005E0006031884204D11149134A121F11601AE088
:1005F00011497831884204D10D490F4A121F116008
:1006000011E00D499031884204D10A490A4A121F6B
:10061000116008E00849A831884204D14FF03D51EB
:10062000054A121F11607047106002403D00002013
:10063000400F002000003D201064024001460020D1
:100640000A6802F001020AB1012000E000207047B0
:1006500010B501F080034BB122B1436943F0800330
:10066000436103E0436923F08003436180290BD099
:100670002AB1036801F01E042343036004E0036809
:1006800001F01E04A343036010BD000010B500225A
:100690000268134B1A40CC680B6823434C69234310
:1006A0008C692343CC6923430C6A23434C6A23435C
:1006B0008C6A23434C6B23438C6B23431A430260A5
:1006C000426922F00702D1E90B3423431A43426105
:1006D0000B6943604B6883608B68C36010BD00008A
:1006E0003F801CF07047000010B500BF064800684E
:1006F00080470421054800F0D4F80128F6D00420F2
:1007000000F006F810BD0000DC00002000000240F0
:100710000149086070470000143C01400146002078
:100720000022044B1B6803EA01020AB1012000E029
:1007300000207047003C0140002123498279002AB3
:100740003AD00A46126803689A430B461A600A1D9B
:10075000126803689A430B1D1A60027911440A68F3
:1007600003681A430A60184A0832126803689A43F9
:10077000154B08331A601A1D126803689A43124B0E
:100780000C331A604279102A0ED11A1F12680368BE
:100790001A430D4B08331A601A1D126803681A4376
:1007A000094B0C331A600DE00749427911440A687D
:1007B00003681A430A6005E0027911440A68036875
:1007C0009A430A6070470000003C0140F0B50A46B9
:1007D00000210023002400BF3DE0012505FA01F3BC
:1007E000156805EA03049C4234D105684F000326CE
:1007F000BE40B543056015794E00B54006683543E7
:1008000005601579012D02D01579022D16D1856864
:100810004F000326BE40B543856055794E00B54074
:10082000866835438560456801268E40B54345603E
:10083000456896798E40B6B235434560C5684F002D
:100840000326BE40B543C560D5794E00B540C668A5
:100850003543C560491C1029BFD3F0BDF0B5002356
:1008600000244D07ED0E02FA05F3CE1000F120052D
:1008700055F826504E07F70E0F26BE40B543CF1051
:1008800000F1200646F82750CE1000F1200555F85B
:10089000265045EA0304CE1000F1200545F8264015
:1008A000F0BD0246002013690B400BB1012000E0AF
:1008B00000207047418370470183704700BFFEE707
:1008C00010B51448C4682078022819D0052813D020
:1008D000062802D007281BD116E00FA000F0F0FD7B
:1008E00017480078012806D10421201D00F0D6FB0E
:1008F00014A000F0E5FD0BE018A000F0E1FD07E01A
:1009000020A000F0DDFD03E025A000F0D9FD00BF30
:1009100000BF10BD8C050020554152545F44415426
:10092000415F545950455F53454C465F4E455457BF
:100930004F524B5F464F524D4154494F4E0D0A00A6
:100940003C00002073656C66206E6574776F726B77
:10095000206973206F6B0D0A00000000554152544E
:100960005F444154415F545950455F544F504F4C80
:100970004F47595F52454C4154494F4E5348495097
:100980000D0A0000554152545F444154415F54598F
:1009900050455F434F4D4D414E440D0A000000004D
:1009A000554152545F444154415F545950455F5240
:1009B0004F555445525F4241434B4F46465F544961
:1009C0004D450D0A0000000000BFFEE77047000023
:1009D00070B5002100230F22C4781CB3174C246883
:1009E00004F4E064C4F5E064C4F30721C1F1040435
:1009F000E3B20A4144789C40E1B284781440214338
:100A00000C07210E0E4C05786155047804F01F0583
:100A10000124AC4005786D11AD0005F1E025C5F865
:100A2000004109E0047804F01F050124AC40054DA5
:100A30000678761145F8264070BD00000CED00E008
:100A400000E400E080E100E002490143024A116055
:100A5000704700000000FA050CED00E029B1064ADD
:100A600012680243044B1A6004E0034A126882438E
:100A7000014B1A60704700003038024029B1064A25
:100A800012680243044B1A6004E0034A126882436E
:100A9000014B1A60704700004038024029B1064AF5
:100AA00012680243044B1A6004E0034A126882434E
:100AB000014B1A60704700004438024029B1064AD1
:100AC00012680243044B1A6004E0034A126882432E
:100AD000014B1A607047000024380240F0B5002135
:100AE00000220024022500260223324F3F6807F02F
:100AF0000C0121B1042905D0082937D105E02E4F7A
:100B0000076036E02D4F076033E02A4F3F1F3F68F4
:100B1000C7F38056274F3F1F3F6807F03F036EB172
:100B2000264FB7FBF3F7DFF88CC0ACF1040CDCF810
:100B300000C0CCF3881C07FB0CF40CE01E4FB7FB85
:100B4000F3F7DFF870C0ACF1040CDCF800C0CCF3B4
:100B5000881C07FB0CF4174F3F1F3F68C7F3014782
:100B60007F1C7D00B4FBF5F7076002E0124F0760C1
:100B700000BF00BF0F4F3F6807F0F0010909104F99
:100B80007A5C0768D74047600A4F3F6807F4E05136
:100B9000890A0B4F7A5C4768D7408760054F3F68EA
:100BA00007F46041490B064F7A5C4768D740C7603D
:100BB000F0BD0000083802400024F40000127A0062
:100BC000F800002000B587B001210846FFF746FF76
:100BD00001210846FFF742FF01210803FFF75EFFEE
:100BE0001020009001208DF8040000208DF80600F0
:100BF00003208DF8050001208DF8070069462C4878
:100C0000FFF7E4FD10212A48FFF756FEE020009090
:100C100002208DF8040000208DF8060003208DF8D6
:100C2000050001208DF8070069462148FFF7CEFD39
:100C3000052211461E48FFF711FE052206211C4819
:100C4000FFF70CFE052207211948FFF707FE0121D7
:100C50000803FFF733FF00214FF48050FFF72EFF0A
:100C60000020ADF808004FF48270ADF80A000020B3
:100C7000ADF80C000220ADF80E000120ADF8100018
:100C80004002ADF812003820ADF814000020ADF895
:100C900016000720ADF8180002A9064800F026F853
:100CA0000121044800F016F8002007B000BD000044
:100CB000000002400030014001460020044A108834
:100CC0004FF6C77210400843014A10807047000079
:100CD0000030014021B1028842F04002028004E06D
:100CE00002884FF6BF731A400280704710B5002289
:100CF000028802F441520B884C8823438C8823439A
:100D0000CC8823430C8923434C8923438C89234378
:100D1000CC8923431A430280838B4FF2FF74234014
:100D200083830B8A038210BD30B500228B071C0F12
:100D30000F2303FA04F20B4B8C1053F82430934327
:100D4000084C8D1044F8253023468C1053F824307D
:100D50008C07240F00FA04F42343024C8D1044F84E
:100D6000253030BD083801400CB5002001900090BE
:100D70003448006840F4A0203249086000BF314880
:100D8000006800F4003000900198401C0190009829
:100D900018B90198B0F5A04FF1D12A48006800F4C5
:100DA000003010B10120009001E000200090009878
:100DB000012846D123484030006840F08050214946
:100DC000403108602048006840F440401E490860F7
:100DD0001C48083000681B49083108600846006854
:100DE00040F4004008600846006840F4A0500860E5
:100DF0001648091F0860081F006840F08070091F2E
:100E0000086000BF0F48006800F000700028F9D0AB
:100E100040F205700E4908600A480830006820F06A
:100E200003000849083108600846006840F00200E5
:100E3000086000BF03480830006800F00C00082874
:100E4000F8D10CBD00380240007000400850400846
:100E5000003C024010B500BF502080F31188BFF362
:100E60004F8FBFF36F8F00BF03F0ACF818B14FF096
:100E700080500449086000BF002080F3118800BF43
:100E800010BD000004ED00E010B51548006840F406
:100E90007000134908601348006840F001001149D0
:100EA000086000200F49083108600E4800680E49AC
:100EB00008400C4908600D48091D0860081F0068BB
:100EC00020F48020091F0860002006490C310860CA
:100ED000FFF74AFF4FF0006001498039086010BDFC
:100EE00088ED00E000380240FFFFF6FE10300024DD
:100EF00010B50121084800F050F8012807D1074833
:100F0000006820B105480068401E044908600121BE
:100F1000014800F033F810BD0008004044000020F4
:100F20007FB505460C4601210420FFF7A7FD029579
:100F3000ADF804400020ADF80600ADF80C0001A9A2
:100F40000D4800F045F8012211460B4800F036F834
:100F50000121094800F015F81E208DF8000000203E
:100F60008DF801008DF8020001208DF8030068461D
:100F7000FFF72EFD7FBD000000080040CA4302823B
:100F8000704721B1028842F00102028004E0028829
:100F90004FF6FE731A400280704730B502460020BB
:100FA00000230024158A05EA0103958905EA010456
:100FB00013B10CB1012000E0002030BD1AB18389CB
:100FC0000B43838102E083898B4383817047000058
:100FD00000220288184B98420ED0184B98420BD032
:100FE000B0F1804F08D0164B984205D0154B98426F
:100FF00002D0154B984204D14FF68F731A404B889C
:101000001A43124B984207D0114B984204D04FF626
:10101000FF431A400B891A4302804B68C3620B8856
:101020000385054B984202D0044B984201D18B7A3C
:1010300003860123838270470000014000040140C1
:101040000004004000080040000C00400010004078
:101050000014004010B54F2140F2E730FFF760FF69
:1010600000210248FFF78DFF10BD0000000800407E
:1010700010B504460748046001210748FFF781FFC7
:1010800000BF044800680028FBD100210248FFF798
:1010900078FF10BD44000020000800401CB50A463F
:1010A000014601238DF8003000238DF801308B7844
:1010B0008DF80230CB788DF803300B78034CA37099
:1010C0004B78E370022323701CBD00003C0000201D
:1010D00010B540F224413C4800F0B6F8002871D029
:1010E000394800883848808800213848FFF7EEF9F1
:1010F00037493648FFF7D0F936480078AA2801D199
:10110000012000E0002033494978552901D101210F
:1011100000E000210840002847D001202E49087037
:101120002C4880782D4908702A48C07848700846B5
:101130000088001D2749085C552801D1012000E0E6
:10114000002026490988491D224A515CAA2901D15B
:10115000012100E00021084000B303201E4908706F
:10116000012008721D4800884880002006E0194AC6
:10117000011D515C1A4A1154411C88B21649498814
:101180008142F4DC02201449087216A000F098F99C
:10119000FFF796FB0020104908720CE004200E496E
:1011A000087012A000F08CF905E002200A490870CE
:1011B00012A000F085F900200749087001210348BA
:1011C000FFF784F910BD00000010014040640240A8
:1011D000008020100C0100208C0500204800002019
:1011E0009C050020736176650D0A0000CAFDBEDD16
:1011F000CEB2B4EDCEF30D0A00000000CAFDBEDD94
:10120000CDB7B4EDCEF30D0A0000000001F400727A
:10121000B2F5007F00D100BFCA430280704721B100
:10122000828942F40052828104E082894DF6FF7384
:101230001A40828170471AB1838A0B43838202E08D
:10124000838A8B438382704770B502460024002353
:101250000025002040F66A16B14200D100BFC1F35C
:10126000421501F01F03012606FA03F3012D02D1F6
:101270009689334006E0022D02D1168A334001E000
:10128000968A33400C12012606FA04F4168834407C
:1012900013B10CB1012000E0002070BDF0B5034691
:1012A000002400260025002040F66A17B94200D12C
:1012B00000BF1846C1F3421401F01F06012707FAC8
:1012C00006F5012C01D10C3004E0022C01D11030C4
:1012D00000E014301AB107682F43076002E0076886
:1012E000AF430760F0BD00002DE9FF4705460E46FD
:1012F0000024A14600BFA046B08900B100BF2C8ADF
:1013000024F44054F08804432C82AC8941F20C60F0
:101310008443B08831890843718908430443AC8110
:10132000AC8A24F44074B0890443AC826846FFF769
:10133000D5FB2048854202D01F48854202D1DDF806
:101340000C9001E0DDF80890A88900F4004040B15D
:1013500009EBC90000EB091031684900B0FBF1F757
:1013600007E009EBC90000EB091031688900B0FB08
:10137000F1F76420B7FBF0F004012009642101FBC0
:101380001078A88900F4004040B1322000EBC8007A
:10139000B0FBF1F000F00700044308E0322000EB5E
:1013A00008106421B0FBF1F000F00F0004432C8121
:1013B000BDE8FF87001001400014014000B58FB068
:1013C00001218805FFF74AFB1A48FFF78BF800BF99
:1013D0001848FFF733F90028FAD14FF00060009069
:1013E0001548019015480290002003908020049039
:1013F000002005904FF48060069000200790089030
:1014000009904FF480300A9000200B9003200C903C
:1014100000200D900E9069460648FFF737F901222B
:1014200010210448FFF714F901210248FFF74EF894
:101430000FB000BD40640240041001400C010020C8
:1014400000B58FB001218805FFF708FB1848FFF7AA
:1014500049F800BF1648FFF7F1F80028FAD14FF01D
:1014600000600090134801901348029040200390C0
:1014700000010490002005904FF480600690002049
:101480000790089009904FF480300A9000200B904C
:1014900003200C9000200D900E9069460448FFF741
:1014A000F5F8012210210248FFF7D2F80FB000BD75
:1014B000B8640240041001408C01002000BFFEE728
:1014C0000FB4054B10B503A9044A029800F0EAF8DE
:1014D00010BC5DF814FB00008D22000808010020FC
:1014E00002E008C8121F08C1002AFAD170477047ED
:1014F000002001E001C1121F002AFBD1704710B586
:10150000002202212C2000F05AFE022211462C203B
:1015100000F055FE10BD10B504466D2240F60601E0
:101520002E2000F04CFE3CB140F2076241F606016D
:101530002E2000F01FFE06E041F2076241F6060190
:101540002E2000F017FE10BD10B5002000F006F8A8
:1015500000220421362000F00DFE10BD38B50446EF
:101560006B4602220021362000F0DAFC0F2C5FD2FD
:10157000DFE804F012081B5E5E5E5E24335E5E40B0
:10158000474E570000208DF800009DF8010000F044
:10159000FE008DF801004CE09DF8000000F0FC001A
:1015A00040F001008DF8000043E09DF8000000F0DD
:1015B000FC0040F002008DF800003AE09DF80000C9
:1015C00000F0B30040F048008DF800009DF80100E5
:1015D00040F080008DF801002BE09DF8000000F045
:1015E000B3008DF800009DF8010000F07F008DF839
:1015F00001001EE09DF8010040F002008DF801009E
:1016000017E09DF8010000F0FD008DF8010010E0EA
:101610009DF8000000F0CF0040F020008DF80000A1
:1016200007E001208DF8000003208DF8010000E0A4
:1016300000BF00BF6B4601220021362000F0C9FD2B
:101640000DF1010301221146362000F0C2FD38BD24
:1016500010B50E20FFF782FF4FF4004206212D2027
:1016600000F088FD012000F07DF90120FFF776FFF2
:1016700010BD70B50446224604212D2000F07AFDED
:10168000032206212D2000F09AFD002206212D20A4
:1016900000F095FD0A212D2000F01BFC0546284690
:1016A00070BD00002DE9FF4F8DB09B460F460446EC
:1016B000002606E025280BD05A460F999047641C57
:1016C000761C20780028F5D111B03046BDE8F08FA7
:1016D0000025A8460122984900E0054314F8013F7F
:1016E000203B02FA03F00842F7D120782E2817D1C8
:1016F00014F8010F45F004052A280ED06FF02F02D0
:101700002078A0F1300109290AD808EB880102EB02
:10171000410100EB0108641CF2E757F8048B641CDC
:1017200020786C280DD004DC4C2812D06A2811D106
:1017300004E074280DD07A280CD10AE045F4001595
:1017400007E0617845F48015814202D1641C05F5FB
:101750008015641C2278692A45D008DC002AB3D0A1
:10176000582A69D0632A10D0642A08D13BE0702A35
:1017700067D0732A13D0752A5CD0782A5CD01046C3
:101780005A460F999047761CD3E017F8040B8DF852
:10179000000000208DF80100E946012003E057F821
:1017A000049B4FF0FF3069074FF0000501D40AE0B9
:1017B0006D1C45450DDA8542FADB19F80510002944
:1017C000F6D106E06D1C8542FCDB19F805100029F6
:1017D000F8D12E4404E019F8010B5A460F999047AE
:1017E0006D1EF8D2A5E00A200021CDE90801C5F35D
:1017F000025002280DD001CFC117031E71F1000362
:101800000DDA4FF0000CD0EB0C006CEB01012D2336
:1018100008E0FF1D27F00707F7E80201EDE72B05B9
:1018200004D52B238DF8283001233BE0EB0739D07A
:101830002023F7E70A2000E010200021CDE908016D
:1018400007E01020002145F00405CDE908014FF024
:101850000808C5F3025002280FD001CF00214FF035
:10186000000A2B071FD5702A0DD0DDE908C38CF0C4
:10187000100C5CEA030C0CD015E0FF1D27F00707E5
:10188000F7E80201EBE740228DF828204FF0010A2B
:101890000BE050EA010306D030238DF828308DF894
:1018A000292002239A46582A04D024A20DF12009A7
:1018B0000B9209E026A2F9E7DDE90823FEF7F2FC26
:1018C0000B9B9B5C09F8013D50EA0102F4D1ADEBA2
:1018D000090020300890680701D44FF001080899EA
:1018E000884502DDA8EB010000E0002080460025CD
:1018F00006E00AA85A46405D0F9990476D1C761C79
:101900005545F6DB04E030205A460F999047761C87
:10191000B8F10001A8F10108F5DC05E019F8010BA8
:101920005A460F999047761C0899481E089000293E
:10193000F4DC641CC5E600000928010030313233B4
:1019400034353637383961626364656600000000FB
:1019500030313233343536373839414243444546E5
:101960000000000010B504462046FFF781FB10BDC3
:10197000014651B108200122824043099B0003F136
:10198000E023C3F8002100BF00BF704710B5082056
:10199000FEF7C4FE044644B1082001218140044AF8
:1019A000430942F8231000BF00BF204610BD0000CD
:1019B00080E100E010B5FEF751FDFEF7D7FC12A064
:1019C000FFF77EFDFFF7FEF812A0FFF779FD0A2072
:1019D000FFF7C8FF01F090FA01F0C9FA002000F00B
:1019E00063F9401C20B90EA0FFF76AFD00BFFEE7B7
:1019F00001F0B8FA0F4800F02BF8032000F0CDFA00
:101A00000DA0FFF75DFD10BD697271206973206F35
:101A10006B0D0A00737069206973206F6B0D0A00EB
:101A200044575420494E4954204641494C45440DA1
:101A30000A000000C800002044575420494E495471
:101A4000205355434345535345440D0A00000000BD
:101A50002DE9F05F04464FF00009CA462578607909
:101A6000854931F810806078401EC6B2042D01D03F
:101A7000072D01D1012000E000208346E07950B914
:101A80007E480068006940F480007C49096808616C
:101A90004FEAE80807E079480068006920F4800010
:101AA000764909680861207A744909688872734820
:101AB0000068006920F440307049096808616F4887
:101AC00000680069217A4FF4403202EA014108437C
:101AD0006A490968086169480068002102690420B0
:101AE00000F059FB424642F604012E2000F042FB72
:101AF0003046FFF710FD6248405D624951F82020F2
:101B000007212B2000F047FB5D48405D5E490A5CE1
:101B10000B212B2000F053FB5C4810F80B200B210D
:101B2000282000F04CFB5648405D594951F82020D0
:101B30000C21282000F02FFBE079564901EB8000B2
:101B4000A17930F811200221272000F013FB524820
:101B500030F816200421272000F00CFBE07928B98A
:101B600064220621272000F005FB17E0A078042856
:101B70000AD110220621272000F0FCFA102226218B
:101B8000272000F01CFB09E020220621272000F07E
:101B9000F1FA28222621272000F011FB3F4800EB14
:101BA0000610E17850F821200821272000F0F3FAF0
:101BB000608910B941F241006081628920212720AB
:101BC00000F0D8FA36480C210268232000F0E3FA2E
:101BD0003348001D30F816200421232000F0CAFAF3
:101BE000A07950B1E0792F490A5C0021212000F052
:101BF000E6FA4FF003094FF0010A05F00F00F0215B
:101C000001EA0511084361784FF4402202EA81415C
:101C10000843910001EA095108434FF4003101EAF9
:101C20004A41084321794FF0F86202EA81510843A2
:101C30006179520102EAC16140EA01073A46002196
:101C40001F2000F0A8FAA078617808430004E17929
:101C500040EA413009490968C86008480068002125
:101C6000C268082000F097FA422200210D2000F0FF
:101C7000A6FABDE8F09F0000BC440008E000002088
:101C80004044000860440008784400087E4400088E
:101C9000484400088C440008984400089C4400080C
:101CA00080440008884400082DE9F04104460025DE
:101CB000002700207B49096808757A49096848753A
:101CC00078490968C882774909688862754909684E
:101CD000C86274490968086372490968486300F07A
:101CE00019F97149884202D08817BDE8F08104F0E3
:101CF000020008B900F0E4F904F0020010B104F0A9
:101D0000F80010B90020FFF729FC0422002124204C
:101D100000F055FA04F0020098B90420FFF7A9FC7E
:101D20000746F8B2E0B1022212212D2000F047FA56
:101D30005C480068C08A40F480505A490968C882EB
:101D40000EE03021282000F0C4F8B0F1883F07D021
:101D500054480068C08A40F4805052490968C882DB
:101D600004F0020028B104F0020058B104F00800A9
:101D700040B11E20FFF77DFC85B2280A4949096859
:101D8000C87203E0002047490968C87204F00200E5
:101D900030B905F01F0000B91025E8B200F084F951
:101DA00004F0100030B10620FFF763FC3D490968DC
:101DB000086003E000203B490968086004F0200047
:101DC00030B10720FFF755FC36490968486003E049
:101DD000002034490968486004F0400030B1082010
:101DE000FFF747FC2F490968087203E000202D49DE
:101DF0000968087204F0800030B10920FFF739FC4F
:101E000028490968487203E0002026490968487299
:101E100004F00200D8B904F0010050B1FFF718FC3B
:101E200020480068C08A40F400601E490968C882E2
:101E300018E00521362000F039F806464FF6FF502D
:101E4000064032460521362000F094F90AE004F0FD
:101E5000040038B913480068C08A40F40060114992
:101E60000968C8820120FFF779FB00220A212C2093
:101E700000F0A5F90021042000F02BF809490968B9
:101E80000861084800680069C0F301400549096815
:101E900088720021082000F01CF802490968C86017
:101EA000002022E7E00000203001CADEF8B5044639
:101EB0000D460026A9B2A0B26B46022200F030F80F
:101EC0009DF800009DF8011000EB012086B230461D
:101ED000F8BDF8B505460E460027B1B2A8B26B466C
:101EE000042200F01DF8032404E01DF8040000EBB8
:101EF0000727641E002CF8DA3846F8BD38B50446CA
:101F00000D46A9B2A0B26B46012200F009F89DF877
:101F1000000038BD10B500210846FFF7DAFF10BDFC
:101F20002DE9F84306460C461746984600252CB97D
:101F3000F2B228466D1C0DF800201BE0F0B240F014
:101F4000400228466D1C0DF800207F2C05DCE2B213
:101F500028466D1C0DF800200CE0E0B240F0800235
:101F600028466D1C0DF80020C4F3C71228466D1CCE
:101F70000DF80020A8B243463A46694600F07EFFBD
:101F8000BDE8F88370B504460D46164623462A463A
:101F900031461120FFF7C4FF70BD70B5054605F04E
:101FA000010080B300212620FFF793FF044624F4AC
:101FB000705444F4A05422460021262000F0EBF88F
:101FC00000213620FFF785FF044644F4040422462E
:101FD0000021362000F0DFF84FF4887405F002008D
:101FE00008B144F4702422462821362000F0D3F8AA
:101FF00005F00200A0B124F47024224628213620E6
:1020000000F0C9F80CE0FFE700212620FFF761FF90
:10201000044624F4705422460021262000F0BBF828
:1020200070BD70B5054600211A20FFF752FF044627
:102030006FF31304C5F313000443224600211A2052
:1020400000F0A9F870BD000070B50446032104201B
:10205000FFF754FF0546002C14DD224600210C201A
:1020600000F088F845F010050E480068006940F05F
:1020700080500C49096808612A460321042000F0B9
:102080009EF80EE025F0100506480068006920F073
:1020900080500449096808612A460321042000F0A1
:1020A0008EF870BDE000002070B5044604F01F00FB
:1020B00040F060052A460E212B2000F080F870BD0C
:1020C00010B5FFF741FA002211462C2000F052F81B
:1020D000002206212C2000F072F8FFF710FA0022EF
:1020E0000321362000F06BF80120FFF73BFCF022C3
:1020F0000321362000F063F8002002490968487582
:1021000010BD0000E00000202DE9F041044600264B
:102110000025002704F0020020B180250120144989
:102120000968487504F00100C0B145F006052A466B
:1021300000210D2000F043F803210F20FFF7B6FE29
:10214000074607F4816008B900260EE0402200210E
:102150000D2000F034F84FF0FF3606E045F00205A0
:102160002A4600210D2000F02AF83046BDE8F08113
:10217000E0000020F8B505460E461446E0B28DF8A2
:10218000000020128DF80100B1B2A8B26B46022205
:1021900000F01FF8F8BDF8B506460F4614460025B6
:1021A00004E0E0B20DF80500240A6D1C042DF8DBF4
:1021B000B9B2B0B26B46042200F00BF8F8BD37B5E7
:1021C00004460D46A9B2A0B202AB012200F001F80C
:1021D0003EBD2DE9F84306460C46174698460025B5
:1021E0003CB9F0B240F0800228466D1C0DF800208A
:1021F0001BE0F0B240F0C00228466D1C0DF8002034
:102200007F2C05DCE2B228466D1C0DF800200CE0A6
:10221000E0B240F0800228466D1C0DF80020C4F3A7
:10222000C71228466D1C0DF80020A8B243463A4656
:10223000694601F091FABDE8F88370B504460E4690
:1022400015462819B0F5806F07DCA21E33462946D3
:102250000920FFF7BEFF002070BD4FF0FF30FBE705
:102260002DE9F04104460D46164607480068C0684F
:10227000204340EA855040EAC6373A46002108200C
:10228000FFF789FFBDE8F081E000002000BF054AAC
:10229000128802F04002002AF9D0C2B2014B9A80A3
:1022A00070470000001001401CB54FF44070FEF76D
:1022B000CBFB00F021FF0EA0FFF702F90EA0FFF705
:1022C000FFF8FEF7C7FE12A0FFF7FAF8FFF772FB60
:1022D0001548052100234FF48062CDE9001013A1B9
:1022E000154801F029FE01F09FF900201CBD0000F7
:1022F0000D0A0D0A000000007573617274315F6988
:102300006E6974206973206F766572210D0A000072
:1023100064656C61795F696E697420206973206FF0
:10232000766572210D0A000000000020737461724E
:10233000745F7461736B0000792F00082DE9F04120
:1023400005460E461C4807681C480068001D00F042
:1023500049FF50B91948006890F82C1001208840B6
:1023600017490968814316480160681C38B936B1BD
:1023700012480168091D134800F072FF1AE07C1929
:102380000E4800684460BC4207D20C480168091D31
:102390000D48006800F04AFF0CE008480168091D7C
:1023A0000A48006800F042FF09480068844201D2F0
:1023B00007480460BDE8F0818C0000207800002010
:1023C00090000020D0320120800000207C000020FE
:1023D000A800002010B5044600F04EFF2348006816
:1023E000401C224908602248006840B92048046027
:1023F0000846006801280DD100F0C2F90AE01D4826
:10240000006838B91A480068C06AE16A884201D891
:102410001748046018480068401C1749086094F881
:102420002C100120884015490968084313490860A9
:10243000E16A01EB8101124A02EB8100211D00F0EB
:102440000FFF00F043FF0B48006868B108480068C0
:10245000C06AE16A884207D24FF08050094908609B
:10246000BFF34F8FBFF36F8F10BD000088000020B7
:102470007800002094000020A4000020900000209C
:102480001C32012004ED00E010B500F0F5FE0C4810
:10249000006890B90B4800F0B9FE0B4800F0B6FE9A
:1024A00008480A49086008480949086000221021C4
:1024B0000A2001F057FA0249086000F007FF10BD3A
:1024C000BC000020E4320120F8320120B4000020DA
:1024D000B800002010B516E000F0CEFE0C48C06831
:1024E000C468201D00F07EFE0A480068401E0949AD
:1024F000086009480068401E0749086000F0E6FED1
:10250000204600F05FF8044800680028E4D110BDC0
:10251000BC320120880000208400002070B50446F1
:102520000D46206C70B1216CE0680144E160D4E993
:102530000210884201D32168E1602846226CE168DC
:10254000FDF79EFE70BD2DE9F04104460F4615468D
:102550004FF00008A66B206C48B9206800282CD1E9
:10256000A06801F0D3FD80460020A06025E07DB981
:102570003946226C6068FDF783FE216C6068084470
:102580006060D4E90101884217D32068606014E0DC
:102590003946226CE068FDF773FE216CE068411A51
:1025A000E1602168E068884203D2216CA068411A8A
:1025B000E160022D01D106B1761E701CA063404679
:1025C000BDE8F08110B50446206B00F09DFE20466A
:1025D00000F09AFE10BD00000146084A1268126819
:1025E0000AB9012200E000220A600A6822B9034AFF
:1025F0001268D268106800E000207047B400002024
:1026000030B54FF49633174800F007042CB1C01DC5
:1026100020F00700134C041B1B1B0246124C2260C7
:102620000024114D6C60D018083820F007000F4CC2
:10263000206000240D4D2D686C600C4D2D682C60C1
:102640001146441A4C60094C24680C60084D4C68D3
:102650002C60084D4C682C604FF00044064D2C60F7
:1026600030BD00001C060020580000206000002043
:1026700068000020640000207400002000BFFFF705
:1026800029FF064800680128F9D94FF08050044915
:102690000860BFF34F8FBFF36F8FF0E71C3201204C
:1026A00004ED00E02DE9F04106460D461746984638
:1026B000069C0DB9246000E02760E66325640121D3
:1026C000204601F08DF9BDE8F0812DE9FF5F8146DC
:1026D0000E469246DDE90E7B109CAAF10100216BAB
:1026E00001EB800828F0070808F0070008B901206E
:1026F00000E0002050B900BF502080F31188BFF3E4
:102700004F8FBFF36F8F00BF00BFFEE786B100257C
:1027100007E0715D04F134004155705D00B902E0DD
:102720006D1C0A2DF5D300BF00213D20015502E0AC
:10273000002084F83400052F00D30427E7622764C3
:1027400000206064201D00F06EFD04F1180000F010
:102750006AFD2461C7F10500A06164620020A064E5
:1027600084F84C0049464046039A00F071FB206013
:10277000BBF1000F01D0CBF80040BDE8FF9F000087
:1027800010B5002407E004EB84010F4A02EB81003E
:1027900000F03CFD641C052CF5D30C4800F036FD20
:1027A0000B4800F033FD0B4800F030FD0A4800F004
:1027B0002DFD0A4800F02AFD044809490860044834
:1027C0000849086010BD00001C3201208032012041
:1027D00094320120A8320120BC320120D0320120E5
:1027E0007C0000208000002010B50146164800E063
:1027F000006803688B42FBD30246436813448B4254
:1028000004D143684C682344436001460A464B6840
:1028100013440468A34211D10C4C03682468A342FA
:1028200008D04B680468646823444B6003681B68E5
:102830000B6005E0054B1B680B6001E003680B6053
:10284000884200D0016010BD5800002060000020C8
:102850002DE9F04104460D4616461F464FF000088C
:1028600065602461B5420CD8F01BA169884202D38F
:102870004FF0010811E0211D0948006800F0D6FC66
:102880000BE0BE4204D2BD4202D34FF0010804E087
:10289000211D0448006800F0C9FC4046BDE8F081F5
:1028A000B8000020B400002070B5054600F0E4FC3C
:1028B000A86B08B9012400E0002400F007FD2046C1
:1028C00070BD70B5054600F0D7FCA86BE96B884277
:1028D00001D1012400E0002400F0F8FC204670BD86
:1028E000F8B505460F461A480068C068C468201D40
:1028F00000F078FC94F8240000F00400E8B1A0692E
:1029000041192B463A462046FFF7A2FFD8B10020D6
:1029100003462A4601460090204601F04FFD064638
:1029200056B900BF502080F31188BFF34F8FBFF31B
:102930006F8F00BF00BFFEE705E094F8240020F091
:10294000010084F824002046216A8847F8BD000071
:10295000B4000020F0B587B0A0E00398002811DA99
:1029600004AE56B900BF502080F31188BFF34F8FDB
:10297000BFF36F8F00BF00BFFEE7D6E90020B1684C
:10298000904700BF03980028E6DB059C606908B902
:10299000012000E0002010B9201D00F023FC02A857
:1029A00000F0DCF8054603980A2875D2DFE800F04D
:1029B00009050739416306083A4200BF00BF00BF5E
:1029C00000BF94F8240040F0010084F8240004982B
:1029D000A269811803462A462046FFF739FFF8B15D
:1029E0002046216A884794F8240000F00400B8B11A
:1029F000002000900498A16942180023194620463F
:102A000001F0DCFC074657B900BF502080F3118865
:102A1000BFF34F8FBFF36F8F00BF00BFFEE700BF54
:102A20003BE000BF94F8240020F0010084F824006B
:102A300033E000BF94F8240040F0010084F8240043
:102A40000498A061A06908B1012000E0002050B9FD
:102A500000BF502080F31188BFF34F8FBFF36F8FFB
:102A600000BF00BFFEE7A06941192B462A46204659
:102A7000FFF7EEFE11E094F8240000F0020018B910
:102A8000204600F041FC05E094F8240020F001000D
:102A900084F8240001E0FFE700BF00BF002203A983
:102AA0000448006801F04CF900287FF456AF07B0E5
:102AB000F0BD0000BC000020F8B505460C4600F053
:102AC000FDFD684600F04AF80646009820BB44B970
:102AD000B54206D801F0C4FB31462846FFF700FF97
:102AE0001CE03CB10E480068006808B9012000E015
:102AF00000200446A91B22460A48006800F0A6FCF4
:102B000001F0AEFB50B94FF0805007490860BFF3A9
:102B10004F8FBFF36F8F01E001F0A2FBF8BD000003
:102B2000B8000020BC00002004ED00E00948006867
:102B3000006808B9012000E0002020B14FF0FF300C
:102B40000549086005E003480068C068006802495C
:102B5000086070477C000020A800002070B5044683
:102B600001F02AFA054607480068854204D200F0C1
:102B70000BF80120206001E0002020600148056082
:102B8000284670BDC40000202DE9F84334E02548F4
:102B90000068C068056823480068C068C468201DD4
:102BA00000F020FB2046216A884794F8240000F0BA
:102BB000040008B3A0694619AE4207D966602461D3
:102BC000211D1848006800F031FB15E00020034685
:102BD0002A4601460090204601F0F0FB074657B90F
:102BE00000BF502080F31188BFF34F8FBFF36F8F6A
:102BF00000BF00BFFEE700BF0A480068006808B9D0
:102C0000012000E000200028C1D00648D0F8008054
:102C100005480068034908600348C0F80080BDE823
:102C2000F8830000B4000020B80000200E480068BF
:102C3000401C08B9012000E0002050B900BF50201E
:102C400080F31188BFF34F8FBFF36F8F00BF00BFBA
:102C5000FEE700BF502080F31188BFF34F8FBFF312
:102C60006F8F00BF00BFFEE74C00002008B500BF1B
:102C70006846FFF7B1FC044620460099FFF71CFFA9
:102C8000FFF768FEF4E770B5044600F0F5FA94F932
:102C9000455010E0606A08B9012000E0002038B912
:102CA00004F1240001F090FA18B100F07BFC00E080
:102CB00003E0681E45B2002DECDC00BFFF2084F865
:102CC000450000F003FB00F0D7FA94F9445010E0FF
:102CD000206908B9012000E0002048B904F1100083
:102CE00001F072FA08B100F05DFC681E45B200E028
:102CF00001E0002DECDC00BFFF2084F8440000F070
:102D0000E5FA70BD2DE9F04104464FF0000800F0EF
:102D1000D5FC4948006808B9FFF772FC47480068CD
:102D20002040002870D1D4B1083404F00700B0B1BD
:102D300004F00700C0F10800044404F0070008B9DB
:102D4000012000E0002050B900BF502080F311881E
:102D5000BFF34F8FBFF36F8F00BF00BFFEE7002CA4
:102D600052D03748006884424ED8364E3046056807
:102D700001E02E462D686868A04202D2286800282B
:102D8000F7D12D48006885423ED0306800F1080830
:102D9000286830606868001B102819D92F1907F0BF
:102DA000070008B9012000E0002050B900BF502002
:102DB00080F31188BFF34F8FBFF36F8F00BF00BF49
:102DC000FEE76868001B78606C603846FFF70CFD12
:102DD0001B4968680968081A1949086008460068AC
:102DE00019490968884203D21548006816490860E5
:102DF0001249686809680843686000202860134821
:102E00000068401C1149086001F02AFA08F0070028
:102E100008B9012000E0002050B900BF502080F325
:102E20001188BFF34F8FBFF36F8F00BF00BFFEE766
:102E30004046BDE8F08100006000002074000020E2
:102E40006400002058000020680000206C00002072
:102E5000001F4FF080730360001F21F00103036027
:102E6000001F054B036014380260001F6FF002035F
:102E700003602038704700002D2C00082DE9F04732
:102E800006460F4690461D460024FEF77FFD81460C
:102E900010201749488300BF0DE0385D154988812F
:102EA00000BF1448008900F001000028F9D0114843
:102EB00080892870641CB442EFDB00240DE0002000
:102EC0000C49888100BF0B48008900F001000028F0
:102ED000F9D0084880892855641C4445EFD3102058
:102EE000034908834846FEF743FD0020BDE8F0870C
:102EF00000000240003001401CB501210846FDF7EA
:102F0000ADFDFDF76FFA0220009001208DF804005E
:102F100000208DF8060002208DF8050069460D4856
:102F2000FDF754FC02210B48FDF7C4FC022000F021
:102F300013F80220009003208DF8040000208DF883
:102F4000070069460348FDF741FC022000F004F841
:102F50001CBD00000000024010B504462046FEF7EC
:102F600087F810BD00B50820FDF7A6FE00BD00B52E
:102F70002020FDF7A1FE00BD1CB5044600F07CF941
:102F80000948022100234A02CDE9001007A10A489E
:102F900000F0D2FF09A0FEF793FA002000F07CFABF
:102FA00000F094F91CBD00000400002074657374E7
:102FB0005F7461736B000000C92F0008746573743F
:102FC0005F7461736B0D0A000020FFF72AF841F26D
:102FD0008830FFF739F871E0002239491520FFF7F2
:102FE0002CF9002211461520FFF73AF90220FFF7CD
:102FF0008BF800BF00210F20FEF76BFF31490860FE
:10300000314908400028F5D02E48008800F480405F
:1030100078B34FF4804200210F20FFF7BCF8002165
:103020001020FEF756FFC0F3090028490880084623
:103030000088052823D10022084601882448FEF78D
:10304000A1FF234882782148018822A0FEF738FAA0
:103050001F480078022812D11D48407878B91C48D2
:10306000807817498978884209D101201D49086074
:1030700005E0FFE71C4A00210F20FFF78CF81B48F2
:103080000068401C194908601648006870B14FF488
:103090007A70FFF761FF0A488078401C0849887001
:1030A00013480068401C1249086004E01148006899
:1030B000401C1049086000200A4908608CE70000A5
:1030C000080000202400002000D027242800002031
:1030D0001D0000206C656E3A256409736E3A256404
:1030E0000D0A00002C000020009027243000002052
:1030F000340000203800002000B587B001210846C8
:10310000FDF7ACFC01211020FDF7C8FC4FF4E120D5
:1031100001900020ADF80800ADF80A00ADF80C00F1
:10312000ADF810000C20ADF80E0001A92948FEF7FB
:10313000DBF801212748FEF772F84FF4C0600590D4
:1031400002208DF818008DF8190000208DF81A0063
:1031500001208DF81B0005A91F48FDF737FB07224A
:1031600009211D48FDF77AFB07220A211A48FDF7BD
:1031700075FB40211748FEF749F8012240F224412F
:103180001448FEF78BF825208DF8000006208DF8F6
:10319000010000208DF8020001208DF80300684630
:1031A000FDF716FC012240210A48FEF744F8FEF71D
:1031B00005F9012280210748FEF73DF8FEF740F9A6
:1031C0000020064908700648C86000204880087240
:1031D00007B000BD00100140000002408C05002037
:1031E0009C05002001460A69D1E901309860D1E9C7
:1031F000010358605068884201D1886850600020FF
:1032000008611068401E10601068704700F10801E6
:1032100041604FF0FF31816000F10801C160016140
:1032200000210160704700210161704710B502461E
:103230000B685C1C0CB9106907E002F1080000E0A3
:103240004068446824689C42FAD944684C604C68E1
:10325000A160886041600A611468641C146010BD3C
:1032600042684A6093688B60936859609160086116
:1032700003685B1C0360704700BF502080F3118817
:10328000BFF34F8FBFF36F8F00BF0E480068401C25
:103290000C49086008460068012812D10A480068F5
:1032A000C0B208B9012000E0002050B900BF502092
:1032B00080F31188BFF34F8FBFF36F8F00BF00BF44
:1032C000FEE770474C00002004ED00E00D48006868
:1032D00050B900BF502080F31188BFF34F8FBFF368
:1032E0006F8F00BF00BFFEE706480068401E05491B
:1032F00008600846006820B9002080F3118800BFEC
:1033000000BF70474C00002070B506463546002EC1
:1033100044D0083D2C46224960680968084008B13D
:10332000012000E0002050B900BF502080F3118838
:10333000BFF34F8FBFF36F8F00BF00BFFEE7206862
:1033400008B9012000E0002050B900BF502080F3F0
:103350001188BFF34F8FBFF36F8F00BF00BFFEE731
:103360000F49606809680840C0B12068B0B90C49CD
:10337000606809688843606000F0A0F909496068E6
:1033800009680844074908602046FFF72DFA0648F7
:103390000068401C0449086000F062FF70BD000036
:1033A00074000020640000207000002000204FF016
:1033B000E02108618861064800684FF47A71B0FB2B
:1033C000F1F0401E4FF0E02148610720086170478E
:1033D000E400002070B5FCF73DFF0446102C16D326
:1033E00004F1E02090F8F05315480078854201DBA5
:1033F000012000E0002050B900BF502080F3118868
:10340000BFF34F8FBFF36F8F00BF00BFFEE70D48C4
:10341000006800F4E0600C490968884201D8012086
:1034200000E0002050B900BF502080F31188BFF3A6
:103430004F8FBFF36F8F00BF00BFFEE770BD00006E
:10344000500000200CED00E0540000202DE9F04178
:1034500005460E4617462C46FFF70EFF94F944002A
:10346000401C10B9002084F8440094F94500401C29
:1034700010B9002084F84500FFF728FFA06B28B999
:103480003A46314604F1240000F0AEF82046FFF73A
:10349000FAFBBDE8F081000070B50546FFF7ECFED1
:1034A00015B93048006800E028460446201DFFF7A3
:1034B00099FE78B9E06A00EB80002B4951F82000B2
:1034C00040B994F82C1001208840284909688143AC
:1034D00026480160A06A18B104F11800FFF782FEC7
:1034E00023480068401C224908601E480068844246
:1034F00009D1211D1F48FFF7B3FE1F480068401C7B
:103500001D49086009E01D480068401E1B4908600D
:103510002046FFF757F8FFF709FBFFF7D7FE1848DB
:103520000068E8B10F480068844219D11548006866
:1035300008B9012000E0002050B900BF502080F3FE
:103540001188BFF34F8FBFF36F8F00BF00BFFEE73F
:103550004FF080500C490860BFF34F8FBFF36F8F5F
:1035600070BD0000780000201C3201209000002077
:10357000A4000020BC32012084000020880000202C
:1035800094000020B000002004ED00E00349096829
:10359000016003490968416070470000A0000020F5
:1035A0008C00002001200149086070479C00002029
:1035B00070B504460D4654B900BF502080F3118801
:1035C000BFF34F8FBFF36F8F00BF00BFFEE705480B
:1035D000016818312046FFF729FE01212846FEF731
:1035E000ADFE70BD7800002070B505460E4614464D
:1035F00055B900BF502080F31188BFF34F8FBFF340
:103600006F8F00BF00BFFEE70648016818312846EB
:10361000FFF726FE0CB14FF0FF3621463046FEF78D
:103620008DFE70BD780000201CB51D4800210B46A2
:103630008222CDE900101BA11C4800F07DFC04464D
:10364000012C02D100F08EFE0446012C15D100BFE2
:10365000502080F31188BFF34F8FBFF36F8F00BFEF
:103660004FF0FF3012490860012012490860002025
:103670001149086000F0AEF810E0601C08B10120AC
:1036800000E0002050B900BF502080F31188BFF344
:103690004F8FBFF36F8F00BF00BFFEE71CBD000060
:1036A000AC00002049444C45000000007D26000885
:1036B000A8000020940000208C0000200248006830
:1036C000401C014908607047B00000201D48006898
:1036D00018B101201C49086032E000201A49086036
:1036E0001A480068B0FA80F0C0F11F0101EB8100B8
:1036F000174A52F8200008B1012000E0002050B91C
:1037000000BF502080F31188BFF34F8FBFF36F8F3E
:1037100000BF00BFFEE701EB81020D4B03EB82000F
:1037200042685268426000F108024368934202D145
:103730004268526842604268D268064B1A6000BF15
:1037400070470000B00000209C0000209000002086
:103750001C320120780000202DE9F04705460E4676
:10376000174698460024FEF711F9814610201749A4
:10377000488300BF0CE0305D1549888100BF1448C4
:10378000008900F001000028F9D011488089641CEC
:10379000AC42F0DB00240DE018F804000C498881ED
:1037A00000BF0B48008900F001000028F9D008484C
:1037B0008089641CBC42EFD310200449088348462A
:1037C000FEF7D6F80020BDE8F087000000000240B8
:1037D000003001401CB55C4800685C49884201D05B
:1037E000012000E0002050B900BF502080F3118874
:1037F000BFF34F8FBFF36F8F00BF00BFFEE752488C
:1038000000685249491E884201D0012000E0002092
:1038100050B900BF502080F31188BFF34F8FBFF322
:103820006F8F00BF00BFFEE749490846007801904E
:10383000FF200A4610700846007800909DF80000AE
:1038400000F0F0009DF80020904201D1012000E03E
:10385000002050B900BF502080F31188BFF34F8F74
:10386000BFF36F8F00BF00BFFEE79DF8000000F0C0
:103870005000384A10700720374A106009E0364877
:103880000068401E344A10609DF800004006000E9B
:1038900000909DF8000000F080008028EFD02E48B6
:1038A0000068C0F10700042801D1012000E00020D9
:1038B00050B900BF502080F31188BFF34F8FBFF382
:1038C0006F8F00BF00BFFEE723480068C0F107000C
:1038D000042801D1012000E0002050B900BF502091
:1038E00080F31188BFF34F8FBFF36F8F00BF00BF0E
:1038F000FEE7194800680002174A10601046008869
:1039000000F4E0601060124A019810700E482030F8
:10391000006840F470000C492031086008460068D7
:1039200040F070400860FFF741FD00200B4908603F
:10393000FCF758FC0A48006840F04040084908601D
:10394000FCF73CFC00201CBD00ED00E071C20F4103
:1039500000E400E050000020540000204C00002053
:1039600034EF00E02DE9F84305460E4690460DB1D0
:10397000012000E0002050B900BF502080F31188E2
:10398000BFF34F8FBFF36F8F00BF00BFFEE705FB94
:1039900006F71EB1B7FBF6F0A84201D1012000E006
:1039A000002050B900BF502080F31188BFF34F8F23
:1039B000BFF36F8F00BF00BFFEE707F14800FFF7BE
:1039C000A1F904464CB1A14609F1480943464A46CB
:1039D000314628460094FEF765FE2046BDE8F88390
:1039E00070B505460E462C4654B900BF502080F3F2
:1039F0001188BFF34F8FBFF36F8F00BF00BFFEE78B
:103A0000FFF73AFCD4E90F12206801FB0200A06026
:103A10000020A06320686060E06B401E226C21687B
:103A200000FB0211E160FF2084F8440084F84500A7
:103A30009EB9206908B9012000E00020A8B904F16E
:103A4000100000F0C1FB80B14FF0805009490860C0
:103A5000BFF34F8FBFF36F8F07E004F11000FFF744
:103A6000D5FB04F12400FFF7D1FBFFF72FFC012069
:103A700070BD000004ED00E02DE9FF4383B0064671
:103A800088461D464FF00009344654B900BF502007
:103A900080F31188BFF34F8FBFF36F8F00BF00BF5C
:103AA000FEE7B8F1000F01D1206C08B9012000E059
:103AB000002050B900BF502080F31188BFF34F8F12
:103AC000BFF36F8F00BF00BFFEE7022D02D1E06B96
:103AD000012801D1012000E0002050B900BF502092
:103AE00080F31188BFF34F8FBFF36F8F00BF00BF0C
:103AF000FEE700F051FA08B9059808B9012000E086
:103B0000002050B900BF502080F31188BFF34F8FC1
:103B1000BFF36F8F00BF00BFFEE700BFFFF7ACFB36
:103B2000A06BE16B884201D3022D28D12A46414681
:103B30002046FEF708FD0746606A08B9012000E04C
:103B4000002068B904F1240000F03EFB88B14FF07A
:103B5000805032490860BFF34F8FBFF36F8F08E08A
:103B60003FB14FF080502D490860BFF34F8FBFF336
:103B70006F8FFFF7ABFB012007B0BDE8F08305981E
:103B800018B9FFF7A3FB0020F6E7B9F1000F04D145
:103B900001A8FFF7FBFC4FF00109FFF797FBFFF7C8
:103BA0008DFDFFF769FB94F94400401C10B900201B
:103BB00084F8440094F94500401C10B9002084F8B2
:103BC0004500FFF783FB05A901A800F06DF9F0B9E6
:103BD0002046FEF776FEA0B104F110000599FFF72C
:103BE000E7FC2046FFF74FF800F03AFB002895D19C
:103BF0004FF0805009490860BFF34F8FBFF36F8FBC
:103C00008CE72046FFF73FF800F02AFB86E72046C6
:103C1000FFF739F800F024FB0020ADE704ED00E0E9
:103C20002DE9F84F07468B4690461E463C4654B950
:103C300000BF502080F31188BFF34F8FBFF36F8F09
:103C400000BF00BFFEE7BBF1000F01D1206C08B937
:103C5000012000E0002050B900BF502080F31188FF
:103C6000BFF34F8FBFF36F8F00BF00BFFEE7022E81
:103C700002D1E06B012801D1012000E0002050B901
:103C800000BF502080F31188BFF34F8FBFF36F8FB9
:103C900000BF00BFFEE7FFF79DFB00BF5021EFF321
:103CA000118081F31188BFF34F8FBFF36F8F00BF77
:103CB0000546A06BE16B884201D3022E37D194F9FF
:103CC00045A0A06B0090324659462046FEF73BFCCB
:103CD0000AF1010088B9606A08B9012000E00020FB
:103CE00050B904F1240000F06FFA28B1B8F1000FC8
:103CF00002D00120C8F8000016E0BAF17F0F01D011
:103D0000012000E0002050B900BF502080F311884E
:103D1000BFF34F8FBFF36F8F00BF00BFFEE70AF105
:103D2000010040B284F845004FF0010901E04FF076
:103D3000000900BF85F3118800BF4846BDE8F88F31
:103D40002DE9F74183B005460E464FF000082C469A
:103D500054B900BF502080F31188BFF34F8FBFF3D9
:103D60006F8F00BF00BFFEE70EB9206C08B90120BD
:103D700000E0002050B900BF502080F31188BFF34D
:103D80004F8FBFF36F8F00BF00BFFEE700F004F955
:103D900008B9059808B9012000E0002050B900BF1B
:103DA000502080F31188BFF34F8FBFF36F8F00BF98
:103DB00000BFFEE700BFFFF75FFAA76BF7B1314620
:103DC0002046FEF7ABFB781EA063206908B90120EE
:103DD00000E0002060B904F1100000F0F5F938B1FE
:103DE0004FF080502F490860BFF34F8FBFF36F8FA4
:103DF000FFF76CFA012006B0BDE8F081059818B90C
:103E0000FFF764FA0020F6E7B8F1000F04D101A82B
:103E1000FFF7BCFB4FF00108FFF758FAFFF74EFC25
:103E2000FFF72AFA94F94400401C10B9002084F8E6
:103E3000440094F94500401C10B9002084F8450066
:103E4000FFF744FA05A901A800F02EF8F0B92046C2
:103E5000FEF72AFDA0B104F124000599FFF7A8FBA5
:103E60002046FEF710FF00F0FBF90028A3D14FF029
:103E700080500C490860BFF34F8FBFF36F8F9AE7F4
:103E80002046FEF700FF00F0EBF994E72046FEF72E
:103E9000FAFE00F0E5F92046FEF706FD00288AD07C
:103EA0000020A8E704ED00E070B505460C4655B9C2
:103EB00000BF502080F31188BFF34F8FBFF36F8F87
:103EC00000BF00BFFEE754B900BF502080F3118847
:103ED000BFF34F8FBFF36F8F00BF00BFFEE7FFF749
:103EE000CBF9134802686868131A2068401C08B9A7
:103EF000002619E00F4928680968884206D06868DA
:103F0000904203D80126002020600DE020689842EE
:103F100007D92068C01A20602846FFF737FB002623
:103F200002E0002020600126FFF7D0F9304670BD86
:103F30008C000020A00000202DE9FF4F85B08046B6
:103F400089461746DDE912ABB800FEF7DBFE0646F0
:103F500056B15020FEF7D6FE04460CB1266304E0AD
:103F60003046FFF7D1F900E000247CB10020CDE914
:103F700000ABCDE902403A4649464046089BFEF771
:103F8000A4FB2046FEF726FA012501E04FF0FF359D
:103F9000284609B0BDE8F08F0549096809B9012034
:103FA00005E00449096809B9022000E000207047D3
:103FB00094000020B000002001490868704700000C
:103FC0008C0000202DE9F0414FF0000844480068C3
:103FD00000287CD143480068451C4248056015BB59
:103FE00041480068006808B9012000E0002050B98D
:103FF00000BF502080F31188BFF34F8FBFF36F8F46
:1040000000BF00BFFEE738480768384800683649F7
:1040100008603648076036480068401C344908602C
:10402000FEF784FD00BF3348006885423CD300BFE3
:104030002D480068006808B9012000E0002020B188
:104040004FF0FF302B4908602DE027480068C0681A
:10405000C4686668B54202D22648066023E0201D87
:10406000FFF7C0F8A06A18B104F11800FFF7BAF81A
:1040700094F82C10012088401F49096808431E4904
:104080000860E16A01EB81011C4A02EB8100211DFD
:10409000FFF7E6F81A49E06A0968C96A8842C7D397
:1040A0004FF00108C4E700BF15480068C06A00EB84
:1040B0008000124951F82000012801D94FF0010871
:1040C0001048006808B14FF0010805E0FFE70E480E
:1040D0000068401C0C4908604046BDE8F0810000C3
:1040E000B00000208C0000207C0000208000002018
:1040F000A0000020A8000020900000201C32012019
:10410000780000209C0000209800002070B5054633
:104110002C460026002D4ED028480068844201D14C
:10412000012000E0002050B900BF502080F311882A
:10413000BFF34F8FBFF36F8F00BF00BFFEE7606C10
:1041400050B900BF502080F31188BFF34F8FBFF3E9
:104150006F8F00BF00BFFEE7606C401E6064216C83
:10416000E06A884227D0606C28BB201DFFF73AF830
:1041700040B994F82C100120884011490968814306
:104180000F480160206CE062E06AC0F10500A061A8
:1041900094F82C100120884009490968084308490F
:1041A0000860E16A01EB8101064A02EB8100211DF2
:1041B000FFF756F80126304670BD00007800002059
:1041C000900000201C32012070B50646F068C468DB
:1041D00054B900BF502080F31188BFF34F8FBFF355
:1041E0006F8F00BF00BFFEE704F11800FEF7FAFF73
:1041F00015480068A8B9201DFEF7F4FF94F82C10AC
:104200000120884011490968084310490860E16AA3
:1042100001EB81010E4A02EB8100211DFFF720F81E
:1042200004E004F118010B48FFF71AF80A49E06AA4
:104230000968C96A884204D9012501200749086034
:1042400000E00025284670BDB0000020900000204E
:104250001C320120A8320120780000209C000020A0
:1042600070B5002400263648006850B900BF5020C1
:1042700080F31188BFF34F8FBFF36F8F00BF00BF74
:10428000FEE7FEF7F9FF2E480068401E2C49086043
:104290000846006800284FD12A48006800284BD003
:1042A00024E02948C068C46804F11800FEF79AFFAA
:1042B000201DFEF797FF94F82C1001208840234919
:1042C0000968084321490860E16A01EB8101204A3D
:1042D00002EB8100211DFEF7C3FF1E49E06A096859
:1042E000C96A884202D301201B4908601648006849
:1042F00008B9012000E000200028D2D00CB1FEF760
:1043000015FC1648056865B100BFFFF75BFE10B1EC
:104310000120114908606D1E002DF6D100200F49C3
:1043200008600D48006838B1012630070C49086064
:10433000BFF34F8FBFF36F8FFEF7C8FF304670BDDE
:10434000B000002088000020A8320120900000204A
:104350001C320120780000209C00002098000020E2
:1043600004ED00E01CB50024FEF78EF80E4800684E
:1043700058B10E48022100234FF48272CDE900109B
:104380000BA10D48FFF7D8FD044654B900BF5020DB
:1043900080F31188BFF34F8FBFF36F8F00BF00BF53
:1043A000FEE720461CBD0000BC000020C00000202D
:1043B000546D7220537663006D2C00082DE9FF4781
:1043C00004460D4616461F46DDF830804FF00009C2
:1043D00054B900BF502080F31188BFF34F8FBFF353
:1043E0006F8F00BF00BFFEE71448006810B3009550
:1043F00001960294062D15DAFFF7CEFD022808D1AA
:104400000023424669460D480068FFF735FB8146A8
:1044100010E000231A46694608480068FFF72CFBA5
:10442000814607E000233A46694604480068FFF7E2
:10443000F7FB8146484604B0BDE8F087BC00002089
:104440000000010203040005405C0000A05C0400C1
:10445000C06C0800805C0400E03F1E00E07D1E0090
:10446000070400090805400809104008080540082D
:104470001D0400081D0400081E265626BEBED8BC1A
:1044800007A9022570889B88401008000A001600C2
:10449000010006000100020087008D003C001A3177
:1044A00052001A339A001A351D011A376B003B313E
:1044B000BE003B335E013B3596023B370000985906
:1044C0009859EA518E421E45142E0080EA51F42874
:1044D0003233E03A703DE03AC235842BC235323394
:1044E000C235C235AE47E03A5038A23050380000ED
:1044F00010450008000000200C010000E014000836
:104500001C4600080C0100203C360100F014000895
:104510000000000000000000618800CADE58525808
:10452000546D61637061796C6F616400000000001C
:10453000000000000000000000000000000000007B
:10454000000000000000000000000000000000006B
:10455000000000000000000000000000AAAAAAAAB3
:10456000000000000000000000000000000000004B
:10457000000000000000000000000000000000003B
:10458000000000000000000000000000000000002B
:10459000000000000000000000000000000000001B
:1045A000000000000000000000000000000000000B
:1045B00000000000000000000000000000000000FB
:1045C00000000000000000000000000000000000EB
:1045D0000000000000000000020224010C0901029A
:1045E00000000000000000000000000000000000CB
:1045F0000C33012000688909000000000000000061
:104600000102030406070809000000000102030478
:0C46100001020304060708090000000076
:040000050800018965
:00000001FF
